{
  "contractName": "ShippingOrder",
  "abi": [
    {
      "constant": true,
      "inputs": [],
      "name": "owner",
      "outputs": [
        {
          "name": "",
          "type": "address"
        }
      ],
      "payable": false,
      "stateMutability": "view",
      "type": "function"
    },
    {
      "inputs": [],
      "payable": false,
      "stateMutability": "nonpayable",
      "type": "constructor"
    },
    {
      "anonymous": false,
      "inputs": [
        {
          "indexed": false,
          "name": "order_id",
          "type": "string"
        }
      ],
      "name": "orderIsCreated",
      "type": "event"
    },
    {
      "anonymous": false,
      "inputs": [
        {
          "indexed": false,
          "name": "order_id",
          "type": "string"
        }
      ],
      "name": "orderIsNotCreated",
      "type": "event"
    },
    {
      "anonymous": false,
      "inputs": [
        {
          "indexed": false,
          "name": "order_id",
          "type": "string"
        }
      ],
      "name": "orderIsConfirmed",
      "type": "event"
    },
    {
      "anonymous": false,
      "inputs": [
        {
          "indexed": false,
          "name": "order_id",
          "type": "string"
        }
      ],
      "name": "orderIsNotConfirmed",
      "type": "event"
    },
    {
      "anonymous": false,
      "inputs": [
        {
          "indexed": false,
          "name": "order_id",
          "type": "string"
        }
      ],
      "name": "orderIsSubmitted",
      "type": "event"
    },
    {
      "anonymous": false,
      "inputs": [
        {
          "indexed": false,
          "name": "role",
          "type": "string"
        }
      ],
      "name": "accessDenied",
      "type": "event"
    },
    {
      "anonymous": false,
      "inputs": [
        {
          "indexed": false,
          "name": "order_id",
          "type": "string"
        }
      ],
      "name": "createdOrder",
      "type": "event"
    },
    {
      "anonymous": false,
      "inputs": [
        {
          "indexed": false,
          "name": "order_id",
          "type": "string"
        }
      ],
      "name": "confirmedOrder",
      "type": "event"
    },
    {
      "anonymous": false,
      "inputs": [
        {
          "indexed": false,
          "name": "order_id",
          "type": "string"
        }
      ],
      "name": "submittedOrder",
      "type": "event"
    },
    {
      "anonymous": false,
      "inputs": [
        {
          "indexed": false,
          "name": "role",
          "type": "string"
        }
      ],
      "name": "roleSet",
      "type": "event"
    },
    {
      "constant": false,
      "inputs": [
        {
          "name": "order_id",
          "type": "string"
        },
        {
          "name": "container_no",
          "type": "string"
        },
        {
          "name": "commodity",
          "type": "string"
        },
        {
          "name": "order_filename",
          "type": "string"
        },
        {
          "name": "order_timestamp",
          "type": "string"
        }
      ],
      "name": "createOrder",
      "outputs": [],
      "payable": false,
      "stateMutability": "nonpayable",
      "type": "function"
    },
    {
      "constant": false,
      "inputs": [
        {
          "name": "order_id",
          "type": "string"
        },
        {
          "name": "confirmation_filename",
          "type": "string"
        },
        {
          "name": "confirmation_timestamp",
          "type": "string"
        }
      ],
      "name": "confirmOrder",
      "outputs": [],
      "payable": false,
      "stateMutability": "nonpayable",
      "type": "function"
    },
    {
      "constant": false,
      "inputs": [
        {
          "name": "order_id",
          "type": "string"
        },
        {
          "name": "shipper_name",
          "type": "string"
        },
        {
          "name": "invoice_no",
          "type": "string"
        },
        {
          "name": "bank",
          "type": "string"
        },
        {
          "name": "account_no",
          "type": "string"
        }
      ],
      "name": "submitInstruction",
      "outputs": [],
      "payable": false,
      "stateMutability": "nonpayable",
      "type": "function"
    },
    {
      "constant": true,
      "inputs": [
        {
          "name": "order_id",
          "type": "string"
        }
      ],
      "name": "getOrder",
      "outputs": [
        {
          "name": "",
          "type": "string"
        },
        {
          "name": "",
          "type": "string"
        },
        {
          "name": "",
          "type": "string"
        },
        {
          "name": "",
          "type": "string"
        }
      ],
      "payable": false,
      "stateMutability": "view",
      "type": "function"
    },
    {
      "constant": true,
      "inputs": [
        {
          "name": "order_id",
          "type": "string"
        }
      ],
      "name": "getConfirmation",
      "outputs": [
        {
          "name": "",
          "type": "string"
        },
        {
          "name": "",
          "type": "string"
        }
      ],
      "payable": false,
      "stateMutability": "view",
      "type": "function"
    },
    {
      "constant": false,
      "inputs": [
        {
          "name": "addr",
          "type": "address"
        },
        {
          "name": "role",
          "type": "string"
        }
      ],
      "name": "setRole",
      "outputs": [],
      "payable": false,
      "stateMutability": "nonpayable",
      "type": "function"
    },
    {
      "constant": true,
      "inputs": [
        {
          "name": "addr",
          "type": "address"
        }
      ],
      "name": "getRole",
      "outputs": [
        {
          "name": "",
          "type": "string"
        }
      ],
      "payable": false,
      "stateMutability": "view",
      "type": "function"
    }
  ],
  "bytecode": "0x6060604052341561000f57600080fd5b336000806101000a81548173ffffffffffffffffffffffffffffffffffffffff021916908373ffffffffffffffffffffffffffffffffffffffff160217905550612e9d8061005e6000396000f30060606040526004361061008e576000357c0100000000000000000000000000000000000000000000000000000000900463ffffffff16806322f9956f1461009357806341e33201146101d5578063442767331461033e578063712ca0f8146103f057806375cfa1981461060a5780638da5cb5b14610773578063e4fcee18146107c8578063f832309b146108ab575b600080fd5b341561009e57600080fd5b6100ee600480803590602001908201803590602001908080601f01602080910402602001604051908101604052809392919081815260200183838082843782019150505050505091905050610927565b604051808060200180602001838103835285818151815260200191508051906020019080838360005b83811015610132578082015181840152602081019050610117565b50505050905090810190601f16801561015f5780820380516001836020036101000a031916815260200191505b50838103825284818151815260200191508051906020019080838360005b8381101561019857808201518184015260208101905061017d565b50505050905090810190601f1680156101c55780820380516001836020036101000a031916815260200191505b5094505050505060405180910390f35b34156101e057600080fd5b61033c600480803590602001908201803590602001908080601f0160208091040260200160405190810160405280939291908181526020018383808284378201915050505050509190803590602001908201803590602001908080601f0160208091040260200160405190810160405280939291908181526020018383808284378201915050505050509190803590602001908201803590602001908080601f0160208091040260200160405190810160405280939291908181526020018383808284378201915050505050509190803590602001908201803590602001908080601f0160208091040260200160405190810160405280939291908181526020018383808284378201915050505050509190803590602001908201803590602001908080601f01602080910402602001604051908101604052809392919081815260200183838082843782019150505050505091905050610e72565b005b341561034957600080fd5b610375600480803573ffffffffffffffffffffffffffffffffffffffff169060200190919050506115f1565b6040518080602001828103825283818151815260200191508051906020019080838360005b838110156103b557808201518184015260208101905061039a565b50505050905090810190601f1680156103e25780820380516001836020036101000a031916815260200191505b509250505060405180910390f35b34156103fb57600080fd5b61044b600480803590602001908201803590602001908080601f0160208091040260200160405190810160405280939291908181526020018383808284378201915050505050509190505061179c565b6040518080602001806020018060200180602001858103855289818151815260200191508051906020019080838360005b8381101561049757808201518184015260208101905061047c565b50505050905090810190601f1680156104c45780820380516001836020036101000a031916815260200191505b50858103845288818151815260200191508051906020019080838360005b838110156104fd5780820151818401526020810190506104e2565b50505050905090810190601f16801561052a5780820380516001836020036101000a031916815260200191505b50858103835287818151815260200191508051906020019080838360005b83811015610563578082015181840152602081019050610548565b50505050905090810190601f1680156105905780820380516001836020036101000a031916815260200191505b50858103825286818151815260200191508051906020019080838360005b838110156105c95780820151818401526020810190506105ae565b50505050905090810190601f1680156105f65780820380516001836020036101000a031916815260200191505b509850505050505050505060405180910390f35b341561061557600080fd5b610771600480803590602001908201803590602001908080601f0160208091040260200160405190810160405280939291908181526020018383808284378201915050505050509190803590602001908201803590602001908080601f0160208091040260200160405190810160405280939291908181526020018383808284378201915050505050509190803590602001908201803590602001908080601f0160208091040260200160405190810160405280939291908181526020018383808284378201915050505050509190803590602001908201803590602001908080601f0160208091040260200160405190810160405280939291908181526020018383808284378201915050505050509190803590602001908201803590602001908080601f01602080910402602001604051908101604052809392919081815260200183838082843782019150505050505091905050611f11565b005b341561077e57600080fd5b610786612564565b604051808273ffffffffffffffffffffffffffffffffffffffff1673ffffffffffffffffffffffffffffffffffffffff16815260200191505060405180910390f35b34156107d357600080fd5b6108a9600480803590602001908201803590602001908080601f0160208091040260200160405190810160405280939291908181526020018383808284378201915050505050509190803590602001908201803590602001908080601f0160208091040260200160405190810160405280939291908181526020018383808284378201915050505050509190803590602001908201803590602001908080601f01602080910402602001604051908101604052809392919081815260200183838082843782019150505050505091905050612589565b005b34156108b657600080fd5b610925600480803573ffffffffffffffffffffffffffffffffffffffff1690602001909190803590602001908201803590602001908080601f01602080910402602001604051908101604052809392919081815260200183838082843782019150505050505091905050612c00565b005b61092f612db8565b610937612db8565b6040805190810160405280600781526020017f5368697070657200000000000000000000000000000000000000000000000000815250806040518082805190602001908083835b6020831015156109a3578051825260208201915060208101905060208303925061097e565b6001836020036101000a038019825116818451168082178552505050505050905001915050604051809103902060001916600260003373ffffffffffffffffffffffffffffffffffffffff1673ffffffffffffffffffffffffffffffffffffffff1681526020019081526020016000206040518082805460018160011615610100020316600290048015610a6e5780601f10610a4c576101008083540402835291820191610a6e565b820191906000526020600020905b815481529060010190602001808311610a5a575b5050915050604051809103902060001916141515610b27577f5312dd75a9e6f37671bad29eb304dc8e362eae39c59e984fed296a410eccc22d816040518080602001828103825283818151815260200191508051906020019080838360005b83811015610ae8578082015181840152602081019050610acd565b50505050905090810190601f168015610b155780820380516001836020036101000a031916815260200191505b509250505060405180910390a1610e6c565b83600015156001826040518082805190602001908083835b602083101515610b645780518252602082019150602081019050602083039250610b3f565b6001836020036101000a0380198251168184511680821785525050505050509050019150509081526020016040518091039020600a0160019054906101000a900460ff1615151415610c51577f497bb86921885c5bc80ff81537ad3bde9c4d4bf66dde77d7cc83fa9f60765159816040518080602001828103825283818151815260200191508051906020019080838360005b83811015610c12578082015181840152602081019050610bf7565b50505050905090810190601f168015610c3f5780820380516001836020036101000a031916815260200191505b509250505060405180910390a1610e6a565b6001856040518082805190602001908083835b602083101515610c895780518252602082019150602081019050602083039250610c64565b6001836020036101000a03801982511681845116808217855250505050505090500191505090815260200160405180910390206004016001866040518082805190602001908083835b602083101515610cf75780518252602082019150602081019050602083039250610cd2565b6001836020036101000a0380198251168184511680821785525050505050509050019150509081526020016040518091039020600501818054600181600116156101000203166002900480601f016020809104026020016040519081016040528092919081815260200182805460018160011615610100020316600290048015610dc25780601f10610d9757610100808354040283529160200191610dc2565b820191906000526020600020905b815481529060010190602001808311610da557829003601f168201915b50505050509150808054600181600116156101000203166002900480601f016020809104026020016040519081016040528092919081815260200182805460018160011615610100020316600290048015610e5e5780601f10610e3357610100808354040283529160200191610e5e565b820191906000526020600020905b815481529060010190602001808311610e4157829003601f168201915b50505050509050935093505b505b50915091565b6040805190810160405280600781526020017f5368697070657200000000000000000000000000000000000000000000000000815250806040518082805190602001908083835b602083101515610ede5780518252602082019150602081019050602083039250610eb9565b6001836020036101000a038019825116818451168082178552505050505050905001915050604051809103902060001916600260003373ffffffffffffffffffffffffffffffffffffffff1673ffffffffffffffffffffffffffffffffffffffff1681526020019081526020016000206040518082805460018160011615610100020316600290048015610fa95780601f10610f87576101008083540402835291820191610fa9565b820191906000526020600020905b815481529060010190602001808311610f95575b5050915050604051809103902060001916141515611062577f5312dd75a9e6f37671bad29eb304dc8e362eae39c59e984fed296a410eccc22d816040518080602001828103825283818151815260200191508051906020019080838360005b83811015611023578082015181840152602081019050611008565b50505050905090810190601f1680156110505780820380516001836020036101000a031916815260200191505b509250505060405180910390a16115e9565b85600015156001826040518082805190602001908083835b60208310151561109f578051825260208201915060208101905060208303925061107a565b6001836020036101000a0380198251168184511680821785525050505050509050019150509081526020016040518091039020600a0160019054906101000a900460ff161515141561118c577f497bb86921885c5bc80ff81537ad3bde9c4d4bf66dde77d7cc83fa9f60765159816040518080602001828103825283818151815260200191508051906020019080838360005b8381101561114d578082015181840152602081019050611132565b50505050905090810190601f16801561117a5780820380516001836020036101000a031916815260200191505b509250505060405180910390a16115e7565b86600115156001826040518082805190602001908083835b6020831015156111c957805182526020820191506020810190506020830392506111a4565b6001836020036101000a0380198251168184511680821785525050505050509050019150509081526020016040518091039020600a0160029054906101000a900460ff16151514156112b6577feda48c76f4bf2add5a1d495f75c64f34261dd66c900322c2dbaba414f7ca941c816040518080602001828103825283818151815260200191508051906020019080838360005b8381101561127757808201518184015260208101905061125c565b50505050905090810190601f1680156112a45780820380516001836020036101000a031916815260200191505b509250505060405180910390a16115e5565b866001896040518082805190602001908083835b6020831015156112ef57805182526020820191506020810190506020830392506112ca565b6001836020036101000a03801982511681845116808217855250505050505090500191505090815260200160405180910390206006019080519060200190611338929190612dcc565b50856001896040518082805190602001908083835b602083101515611372578051825260208201915060208101905060208303925061134d565b6001836020036101000a038019825116818451168082178552505050505050905001915050908152602001604051809103902060070190805190602001906113bb929190612dcc565b50846001896040518082805190602001908083835b6020831015156113f557805182526020820191506020810190506020830392506113d0565b6001836020036101000a0380198251168184511680821785525050505050509050019150509081526020016040518091039020600801908051906020019061143e929190612dcc565b50836001896040518082805190602001908083835b6020831015156114785780518252602082019150602081019050602083039250611453565b6001836020036101000a038019825116818451168082178552505050505050905001915050908152602001604051809103902060090190805190602001906114c1929190612dcc565b50600180896040518082805190602001908083835b6020831015156114fb57805182526020820191506020810190506020830392506114d6565b6001836020036101000a0380198251168184511680821785525050505050509050019150509081526020016040518091039020600a0160026101000a81548160ff0219169083151502179055507feda11172480271c6a5fcb7770a016fe208086048ccfbe33086ea1d4c40844f69886040518080602001828103825283818151815260200191508051906020019080838360005b838110156115aa57808201518184015260208101905061158f565b50505050905090810190601f1680156115d75780820380516001836020036101000a031916815260200191505b509250505060405180910390a15b505b505b505050505050565b6115f9612db8565b6000809054906101000a900473ffffffffffffffffffffffffffffffffffffffff1673ffffffffffffffffffffffffffffffffffffffff163373ffffffffffffffffffffffffffffffffffffffff161415156116bc577f5312dd75a9e6f37671bad29eb304dc8e362eae39c59e984fed296a410eccc22d6040518080602001828103825260058152602001807f41646d696e00000000000000000000000000000000000000000000000000000081525060200191505060405180910390a1611797565b600260008373ffffffffffffffffffffffffffffffffffffffff1673ffffffffffffffffffffffffffffffffffffffff1681526020019081526020016000208054600181600116156101000203166002900480601f01602080910402602001604051908101604052809291908181526020018280546001816001161561010002031660029004801561178f5780601f106117645761010080835404028352916020019161178f565b820191906000526020600020905b81548152906001019060200180831161177257829003601f168201915b505050505090505b919050565b6117a4612db8565b6117ac612db8565b6117b4612db8565b6117bc612db8565b6040805190810160405280600781526020017f4361727269657200000000000000000000000000000000000000000000000000815250806040518082805190602001908083835b6020831015156118285780518252602082019150602081019050602083039250611803565b6001836020036101000a038019825116818451168082178552505050505050905001915050604051809103902060001916600260003373ffffffffffffffffffffffffffffffffffffffff1673ffffffffffffffffffffffffffffffffffffffff16815260200190815260200160002060405180828054600181600116156101000203166002900480156118f35780601f106118d15761010080835404028352918201916118f3565b820191906000526020600020905b8154815290600101906020018083116118df575b50509150506040518091039020600019161415156119ac577f5312dd75a9e6f37671bad29eb304dc8e362eae39c59e984fed296a410eccc22d816040518080602001828103825283818151815260200191508051906020019080838360005b8381101561196d578082015181840152602081019050611952565b50505050905090810190601f16801561199a5780820380516001836020036101000a031916815260200191505b509250505060405180910390a1611f09565b85600015156001826040518082805190602001908083835b6020831015156119e957805182526020820191506020810190506020830392506119c4565b6001836020036101000a0380198251168184511680821785525050505050509050019150509081526020016040518091039020600a0160009054906101000a900460ff1615151415611ad6577fe00035fc35f4bdb92e2448efe17d1eec24847047941e8527a92b32f081c8a789816040518080602001828103825283818151815260200191508051906020019080838360005b83811015611a97578082015181840152602081019050611a7c565b50505050905090810190601f168015611ac45780820380516001836020036101000a031916815260200191505b509250505060405180910390a1611f07565b6001876040518082805190602001908083835b602083101515611b0e5780518252602082019150602081019050602083039250611ae9565b6001836020036101000a03801982511681845116808217855250505050505090500191505090815260200160405180910390206000016001886040518082805190602001908083835b602083101515611b7c5780518252602082019150602081019050602083039250611b57565b6001836020036101000a03801982511681845116808217855250505050505090500191505090815260200160405180910390206001016001896040518082805190602001908083835b602083101515611bea5780518252602082019150602081019050602083039250611bc5565b6001836020036101000a038019825116818451168082178552505050505050905001915050908152602001604051809103902060020160018a6040518082805190602001908083835b602083101515611c585780518252602082019150602081019050602083039250611c33565b6001836020036101000a0380198251168184511680821785525050505050509050019150509081526020016040518091039020600301838054600181600116156101000203166002900480601f016020809104026020016040519081016040528092919081815260200182805460018160011615610100020316600290048015611d235780601f10611cf857610100808354040283529160200191611d23565b820191906000526020600020905b815481529060010190602001808311611d0657829003601f168201915b50505050509350828054600181600116156101000203166002900480601f016020809104026020016040519081016040528092919081815260200182805460018160011615610100020316600290048015611dbf5780601f10611d9457610100808354040283529160200191611dbf565b820191906000526020600020905b815481529060010190602001808311611da257829003601f168201915b50505050509250818054600181600116156101000203166002900480601f016020809104026020016040519081016040528092919081815260200182805460018160011615610100020316600290048015611e5b5780601f10611e3057610100808354040283529160200191611e5b565b820191906000526020600020905b815481529060010190602001808311611e3e57829003601f168201915b50505050509150808054600181600116156101000203166002900480601f016020809104026020016040519081016040528092919081815260200182805460018160011615610100020316600290048015611ef75780601f10611ecc57610100808354040283529160200191611ef7565b820191906000526020600020905b815481529060010190602001808311611eda57829003601f168201915b5050505050905095509550955095505b505b509193509193565b6040805190810160405280600981526020017f466f727761726465720000000000000000000000000000000000000000000000815250806040518082805190602001908083835b602083101515611f7d5780518252602082019150602081019050602083039250611f58565b6001836020036101000a038019825116818451168082178552505050505050905001915050604051809103902060001916600260003373ffffffffffffffffffffffffffffffffffffffff1673ffffffffffffffffffffffffffffffffffffffff16815260200190815260200160002060405180828054600181600116156101000203166002900480156120485780601f10612026576101008083540402835291820191612048565b820191906000526020600020905b815481529060010190602001808311612034575b5050915050604051809103902060001916141515612101577f5312dd75a9e6f37671bad29eb304dc8e362eae39c59e984fed296a410eccc22d816040518080602001828103825283818151815260200191508051906020019080838360005b838110156120c25780820151818401526020810190506120a7565b50505050905090810190601f1680156120ef5780820380516001836020036101000a031916815260200191505b509250505060405180910390a161255c565b85600115156001826040518082805190602001908083835b60208310151561213e5780518252602082019150602081019050602083039250612119565b6001836020036101000a0380198251168184511680821785525050505050509050019150509081526020016040518091039020600a0160009054906101000a900460ff161515141561222b577f6dfcdf349058c77bb4ce60a748567ffefc2fd39936a0da3eb28d05750dcf1f53816040518080602001828103825283818151815260200191508051906020019080838360005b838110156121ec5780820151818401526020810190506121d1565b50505050905090810190601f1680156122195780820380516001836020036101000a031916815260200191505b509250505060405180910390a161255a565b856001886040518082805190602001908083835b602083101515612264578051825260208201915060208101905060208303925061223f565b6001836020036101000a038019825116818451168082178552505050505050905001915050908152602001604051809103902060000190805190602001906122ad929190612dcc565b50846001886040518082805190602001908083835b6020831015156122e757805182526020820191506020810190506020830392506122c2565b6001836020036101000a03801982511681845116808217855250505050505090500191505090815260200160405180910390206001019080519060200190612330929190612dcc565b50836001886040518082805190602001908083835b60208310151561236a5780518252602082019150602081019050602083039250612345565b6001836020036101000a038019825116818451168082178552505050505050905001915050908152602001604051809103902060020190805190602001906123b3929190612dcc565b50826001886040518082805190602001908083835b6020831015156123ed57805182526020820191506020810190506020830392506123c8565b6001836020036101000a03801982511681845116808217855250505050505090500191505090815260200160405180910390206003019080519060200190612436929190612dcc565b50600180886040518082805190602001908083835b602083101515612470578051825260208201915060208101905060208303925061244b565b6001836020036101000a0380198251168184511680821785525050505050509050019150509081526020016040518091039020600a0160006101000a81548160ff0219169083151502179055507f9960838ba9bb404b25e6d15ad5de4b77acfec74fb0e7d553ec122702b7c448b0876040518080602001828103825283818151815260200191508051906020019080838360005b8381101561251f578082015181840152602081019050612504565b50505050905090810190601f16801561254c5780820380516001836020036101000a031916815260200191505b509250505060405180910390a15b505b505050505050565b6000809054906101000a900473ffffffffffffffffffffffffffffffffffffffff1681565b6040805190810160405280600781526020017f4361727269657200000000000000000000000000000000000000000000000000815250806040518082805190602001908083835b6020831015156125f557805182526020820191506020810190506020830392506125d0565b6001836020036101000a038019825116818451168082178552505050505050905001915050604051809103902060001916600260003373ffffffffffffffffffffffffffffffffffffffff1673ffffffffffffffffffffffffffffffffffffffff16815260200190815260200160002060405180828054600181600116156101000203166002900480156126c05780601f1061269e5761010080835404028352918201916126c0565b820191906000526020600020905b8154815290600101906020018083116126ac575b5050915050604051809103902060001916141515612779577f5312dd75a9e6f37671bad29eb304dc8e362eae39c59e984fed296a410eccc22d816040518080602001828103825283818151815260200191508051906020019080838360005b8381101561273a57808201518184015260208101905061271f565b50505050905090810190601f1680156127675780820380516001836020036101000a031916815260200191505b509250505060405180910390a1612bfa565b83600015156001826040518082805190602001908083835b6020831015156127b65780518252602082019150602081019050602083039250612791565b6001836020036101000a0380198251168184511680821785525050505050509050019150509081526020016040518091039020600a0160009054906101000a900460ff16151514156128a3577fe00035fc35f4bdb92e2448efe17d1eec24847047941e8527a92b32f081c8a789816040518080602001828103825283818151815260200191508051906020019080838360005b83811015612864578082015181840152602081019050612849565b50505050905090810190601f1680156128915780820380516001836020036101000a031916815260200191505b509250505060405180910390a1612bf8565b84600115156001826040518082805190602001908083835b6020831015156128e057805182526020820191506020810190506020830392506128bb565b6001836020036101000a0380198251168184511680821785525050505050509050019150509081526020016040518091039020600a0160019054906101000a900460ff16151514156129cd577fa01f15e5bb9460858ea085bbdfb22bcbec645a8319a10e5a14b771cb20f40c8b816040518080602001828103825283818151815260200191508051906020019080838360005b8381101561298e578082015181840152602081019050612973565b50505050905090810190601f1680156129bb5780820380516001836020036101000a031916815260200191505b509250505060405180910390a1612bf6565b846001876040518082805190602001908083835b602083101515612a0657805182526020820191506020810190506020830392506129e1565b6001836020036101000a03801982511681845116808217855250505050505090500191505090815260200160405180910390206004019080519060200190612a4f929190612dcc565b50836001876040518082805190602001908083835b602083101515612a895780518252602082019150602081019050602083039250612a64565b6001836020036101000a03801982511681845116808217855250505050505090500191505090815260200160405180910390206005019080519060200190612ad2929190612dcc565b50600180876040518082805190602001908083835b602083101515612b0c5780518252602082019150602081019050602083039250612ae7565b6001836020036101000a0380198251168184511680821785525050505050509050019150509081526020016040518091039020600a0160016101000a81548160ff0219169083151502179055507f62242f00abc87b9e83aabc3988a55ca517e247dfe176f8fa9deef1f73bf818ec866040518080602001828103825283818151815260200191508051906020019080838360005b83811015612bbb578082015181840152602081019050612ba0565b50505050905090810190601f168015612be85780820380516001836020036101000a031916815260200191505b509250505060405180910390a15b505b505b50505050565b6000809054906101000a900473ffffffffffffffffffffffffffffffffffffffff1673ffffffffffffffffffffffffffffffffffffffff163373ffffffffffffffffffffffffffffffffffffffff16141515612cc3577f5312dd75a9e6f37671bad29eb304dc8e362eae39c59e984fed296a410eccc22d6040518080602001828103825260058152602001807f41646d696e00000000000000000000000000000000000000000000000000000081525060200191505060405180910390a1612db4565b80600260008473ffffffffffffffffffffffffffffffffffffffff1673ffffffffffffffffffffffffffffffffffffffff1681526020019081526020016000209080519060200190612d16929190612dcc565b507f8f80a056e17841cc864870412509e01a65d8443e595e6e118e03f09b42ee6830816040518080602001828103825283818151815260200191508051906020019080838360005b83811015612d79578082015181840152602081019050612d5e565b50505050905090810190601f168015612da65780820380516001836020036101000a031916815260200191505b509250505060405180910390a15b5050565b602060405190810160405280600081525090565b828054600181600116156101000203166002900490600052602060002090601f016020900481019282601f10612e0d57805160ff1916838001178555612e3b565b82800160010185558215612e3b579182015b82811115612e3a578251825591602001919060010190612e1f565b5b509050612e489190612e4c565b5090565b612e6e91905b80821115612e6a576000816000905550600101612e52565b5090565b905600a165627a7a72305820f6539786f4a410f7dfe5abefa2e6c7d52e34999af239cdad3e2559f257c4e24d0029",
  "source": "pragma solidity ^0.4.17;\n\ncontract ShippingOrder {\n\n  address public owner;\n\n  struct orderInfo {\n    string container_no;\n    string commodity;\n    string order_filename;\n    string order_timestamp;\n\n    string confirmation_filename;\n    string confirmation_timestamp;\n\n    string shipper_name;\n    string invoice_no;\n    string bank;\n    string account_no;\n\n    bool created;\n    bool confirmed;\n    bool submitted;\n  }\n\n  mapping(string => orderInfo) orders;\n  mapping(address => string) roles;\n\n  event orderIsCreated(string order_id);\n  event orderIsNotCreated(string order_id);\n  event orderIsConfirmed(string order_id);\n  event orderIsNotConfirmed(string order_id);\n  event orderIsSubmitted(string order_id);\n  event accessDenied(string role);\n\n  event createdOrder(string order_id);\n  event confirmedOrder(string order_id);\n  event submittedOrder(string order_id);\n  event roleSet(string role);\n\n  modifier orderNotCreated(string order_id) {\n    if (orders[order_id].created == true) {\n      orderIsCreated(order_id);\n      return;\n    }\n    _;\n  }\n\n  modifier orderCreated(string order_id) {\n    if (orders[order_id].created == false) {\n      orderIsNotCreated(order_id);\n      return;\n    }\n    _;\n  }\n\n  modifier orderNotConfirmed(string order_id) {\n    if (orders[order_id].confirmed == true) {\n      orderIsConfirmed(order_id);\n      return;\n    }\n    _;\n  }\n\n  modifier orderConfirmed(string order_id) {\n    if (orders[order_id].confirmed == false) {\n      orderIsNotConfirmed(order_id);\n      return;\n    }\n    _;\n  }\n\n  modifier orderNotSubmitted(string order_id) {\n    if (orders[order_id].submitted == true) {\n      orderIsSubmitted(order_id);\n      return;\n    }\n    _;\n  }\n\n  modifier hasRole(string role) {\n    if (keccak256(roles[msg.sender]) != keccak256(role)) {\n      accessDenied(role);\n      return;\n    }\n    _;\n  }\n\n  modifier onlyOwner() {\n    if (msg.sender != owner) {\n      accessDenied('Admin');\n      return;\n    }\n    _;\n  }\n\n  function ShippingOrder() public {\n    owner = msg.sender;\n  }\n\n  function createOrder(string order_id, string container_no, string commodity, string order_filename, string order_timestamp) \n  hasRole('Forwarder')\n  orderNotCreated(order_id)\n  public {\n    orders[order_id].container_no = container_no;\n    orders[order_id].commodity = commodity;\n    orders[order_id].order_filename = order_filename;\n    orders[order_id].order_timestamp = order_timestamp;\n    orders[order_id].created = true;\n    createdOrder(order_id);\n  }\n\n  function confirmOrder(string order_id, string confirmation_filename, string confirmation_timestamp) \n  hasRole('Carrier')\n  orderCreated(order_id)\n  orderNotConfirmed(order_id)\n  public {\n    orders[order_id].confirmation_filename = confirmation_filename;\n    orders[order_id].confirmation_timestamp = confirmation_timestamp;\n    orders[order_id].confirmed = true;\n    confirmedOrder(order_id);\n  }\n\n  function submitInstruction(string order_id, string shipper_name, string invoice_no, string bank, string account_no) \n  hasRole('Shipper')\n  orderConfirmed(order_id)\n  orderNotSubmitted(order_id)\n  public {\n    orders[order_id].shipper_name = shipper_name;\n    orders[order_id].invoice_no = invoice_no;\n    orders[order_id].bank = bank;\n    orders[order_id].account_no = account_no;\n    orders[order_id].submitted = true;\n    submittedOrder(order_id);\n  }\n\n  function getOrder(string order_id) \n  hasRole('Carrier')\n  orderCreated(order_id)\n  public view returns (string, string, string, string) {\n    return (orders[order_id].container_no,\n            orders[order_id].commodity,\n            orders[order_id].order_filename,\n            orders[order_id].order_timestamp);\n  }\n\n  function getConfirmation(string order_id) \n  hasRole('Shipper')\n  orderConfirmed(order_id)\n  public view returns (string, string) {\n    return (orders[order_id].confirmation_filename, \n            orders[order_id].confirmation_timestamp);\n  }\n\n  function setRole(address addr, string role) \n  onlyOwner()\n  public {\n    roles[addr] = role;\n    roleSet(role);\n  }\n\n  function getRole(address addr) \n  onlyOwner()\n  public view returns (string) {\n    return roles[addr];\n  }\n\n  /*function compareStrings(string a, string b) internal pure returns (bool) {\n    return keccak256(a) == keccak256(b);\n  }*/\n}\n",
  "sourcePath": "C:\\Users\\i068499\\blockchain\\shipping\\contracts\\ShippingOrder.sol",
  "compiler": {
    "name": "solc",
    "version": "0.4.19+commit.c4cbbb05.Emscripten.clang"
  },
  "schemaVersion": "2.0.0",
  "updatedAt": "2018-03-27T04:44:05.431Z"
}